:020000040000fa
:080000000002040000000000f2
:020000040000fa
:10000800c8090000c8090000c8090000c8090000a4
:10001800c8090000c8090000c8090000c809000094
:10002800c8090000c8090000c809000092070000bc
:10003800c8090000c8090000c8090000c807000076
:10004800e4060000c8090000c80900001c070000f9
:10005800c8090000c8090000c8090000c809000054
:100068009a05000058050000c8090000c8090000ea
:1000780044090000c8090000c8090000c8090000b8
:10008800c8090000c8090000c8090000c809000024
:10009800c8090000860900000c080000400800009c
:1000a800c8090000c8090000c8090000c809000004
:1000b800c8090000c8090000c8090000c8090000f4
:1000c800c8090000c8090000c8090000c8090000e4
:1000d800c8090000c8090000c8090000c8090000d4
:1000e800c80900001e060000dc050000c809000061
:1000f800c8090000c8090000c8090000c8090000b4
:10010800c8090000c8090000c8090000c8090000a3
:10011800c8090000c8090000c8090000c809000093
:10012800c8090000c809000074080000c8090000d8
:10013800c8090000c8090000c8090000c809000073
:10014800c8090000c8090000c8090000c809000063
:10015800c8090000c8090000c8090000c809000053
:10016800c809000010090000a8080000dc08000009
:10017800a206000060060000c8090000c8090000c7
:10018800c8090000c8090000c8090000c809000023
:10019800c8090000c8090000c8090000c809000013
:1001a800c8090000c8090000c8090000c809000003
:1001b800c8090000c8090000c8090000c8090000f3
:1001c800c8090000c8090000c8090000c8090000e3
:1001d800c8090000c8090000c8090000c8090000d3
:1001e800c8090000c8090000c8090000c8090000c3
:0801f800c8090000c80900005d
:020000040000fa
:04020400ded2010045
:020000040000fa
:10020800c8090000c8090000c8090000c8090000a2
:10021800c8090000c8090000c8090000c809000092
:10022800c8090000c8090000c809000092070000ba
:10023800c8090000c8090000c8090000c807000074
:10024800e4060000c8090000c80900001c070000f7
:10025800c8090000c8090000c8090000c809000052
:100268009a05000058050000c8090000c8090000e8
:1002780044090000c8090000c8090000c8090000b6
:10028800c8090000c8090000c8090000c809000022
:10029800c8090000860900000c080000400800009a
:1002a800c8090000c8090000c8090000c809000002
:1002b800c8090000c8090000c8090000c8090000f2
:1002c800c8090000c8090000c8090000c8090000e2
:1002d800c8090000c8090000c8090000c8090000d2
:1002e800c80900001e060000dc050000c80900005f
:1002f800c8090000c8090000c8090000c8090000b2
:10030800c8090000c8090000c8090000c8090000a1
:10031800c8090000c8090000c8090000c809000091
:10032800c8090000c809000074080000c8090000d6
:10033800c8090000c8090000c8090000c809000071
:10034800c8090000c8090000c8090000c809000061
:10035800c8090000c8090000c8090000c809000051
:10036800c809000010090000a8080000dc08000007
:10037800a206000060060000c8090000c8090000c5
:10038800c8090000c8090000c8090000c809000021
:10039800c8090000c8090000c8090000c809000011
:1003a800c8090000c8090000c8090000c809000001
:1003b800c8090000c8090000c8090000c8090000f1
:1003c800c8090000c8090000c8090000c8090000e1
:1003d800c8090000c8090000c8090000c8090000d1
:1003e800c8090000c8090000c8090000c8090000c1
:0803f800c8090000c80900005b
:020000040000fa
:100400002f1724000eff27000e01880000000000b7
:10041000000020000000e000020032000001200087
:1004200020028800140007003b0407000000e000e1
:1004300003003a0040da2b001100200002003700d0
:100440000000200001002000810f70000100320038
:1004500014000700e01524000000e0000200320054
:10046000428f020001000000a8d20200010000003b
:100470000040da000000fe004440a9006064210052
:100480000000e000030032000020200090018800fe
:100490004440a800000006008a1f78008b1f7800e7
:1004a00000000600a1028800800478000000eb0034
:1004b0001f003700e284440054a0b4009905ba003c
:1004c000e284440054a0b4009906ba00e2844400d7
:1004d00054a0b4000006eb00476fde00fd07b20039
:1004e000ae018800636ce10003003a00eaff0700f8
:1004f0000000eb000e003700606ce10008003a00dd
:10050000004deb000a05e800020039003420ec0041
:100510000af0a0008b05e900f9ff3e000400370057
:100520006168e100010032000086eb000b0007006b
:1005300019c7ba001905ba000e04e00003003a001a
:100540000a00e000dbff3a0000000600fe07b200f0
:10055000ae0288008a047800f5ff37000cd0a300b3
:10056000e20f4d001c00390089027800354dba00b9
:100570000a05e800020039003420ec000af0a0006f
:100580008b05e9000f003200254dba000a05e8008e
:10059000020039003420ec000af0a0008b05e900cd
:1005a000080032000c00e0000600320015cdba0051
:1005b0000a05e800020039003420ec000af0a0002f
:1005c0008b05e9008984e80054a0b4000b00e0002a
:1005d000e2ff3a00000006009902ba00055d7800cb
:1005e0008b05e900f7ff3200c82ade00055d7800c0
:1005f0008b05e900f3ff32000c00e000f1ff320050
:1006000019ddba00eeff3700485504000100000074
:10061000d455040001000000147f04000100000014
:10062000267a040001000000507904000100000057
:100630009679040001000000127a04000100000015
:10064000e07b0400010000006c7b0400010000005e
:10065000847b040001000000027c04000100000013
:100660004ad20400010000006e580400000000009f
:100670008a58040000000000005804000000000038
:10068000f25c040000000000885b04000000000031
:10069000646e040000000000566b040000000000bf
:1006a0004e620400000000005263040000000000dd
:1006b0001866040000000000486404000000000008
:1006c000c06904000000000018670400000000007a
:1006d000fe680400000000004a6a040000000000f8
:1006e0001a6c0400000000003c6c040000000000d4
:1006f0006e6d040000000000be3304000000000026
:10070000a4470400000000009a4504000000000017
:100710009c46040000000000b855040000000000e2
:10072000accf04000100000012cf04000100000063
:100730002ecf04000100000038cf040001000000ab
:100740006ecf0400010000007acf04000100000019
:100750008acf0400010000009acf040001000000cd
:10076000ec8f040000000000a290040000000000d4
:100770006292040000000000d69004000000000017
:10078000be9b04000000000014a004000000000054
:10079000fe9604000100000070010400010000004a
:1007a000c6070400010000000c0104000100000065
:1007b0008c020400010000009c0204000100000003
:1007c000ac02040001000000caf7040000000000b1
:1007d0005cf9040000000000a0f904000000000023
:1007e000bef9040000000000ecf904000000000065
:1007f00004fa0400000000001cfa040000000000dd
:1008000040e8040000000000b8e904000000000017
:100810001a840400000000002e8f04000000000075
:100820007a8f040000000000a6bc04000100000054
:10083000fec904000000000048ca040000000000d7
:10084000face04000000000080be0400000000009a
:10085000a8cf040000000000ccbf0400000000008e
:1008600086c104000000000070c204000000000007
:1008700010c1040000000000bec40400000000001d
:1008800056c7040000000000c4c3040000000000bc
:100890009ec8040000000000aac804000000000078
:1008a0001ac404000000000066cd0400000000002f
:1008b0004ccb04000000000010d004000000000039
:1008c000aeca04000000000096ca04000000000048
:1008d00082d204000000000048c9040001000000aa
:1008e0009e2b040001000000dc2304000100000036
:1008f000b4250400010000002a26040001000000c5
:1009000064260400010000008626040001000000a7
:100910009a26040001000000ae2604000100000039
:100920007cd0040001000000bcd0040001000000e5
:10093000cad0040001000000d4d00400010000006f
:10094000e2d0040001000000ecd00400010000002f
:10095000f4d004000100000082190400010000002e
:1009600016ab040001000000248404000100000014
:1009700082750400010000002e75040001000000d3
:10098000a66e0400010000007c6f0400010000005e
:10099000b86f040001000000d66f040001000000e1
:1009a000f46f0400010000000c700400010000005e
:1009b0002470040001000000301004000100000059
:1009c0003e10040001000000440b04000100000080
:1009d000d2b10400010000003eb20400010000009a
:1009e00048b20400010000006ab2040001000000e7
:1009f00086b204000100000096b20400010000006d
:100a0000a6b20400010000002e60040001000000f6
:100a10005e60040001000000466004000100000068
:100a2000ecb904000000000024ba0400000000003b
:100a300034ba04000000000044ba040000000000c2
:100a400054ba04000000000064ba04000000000072
:100a50003ea7040000000000aea804000000000053
:100a600002a90400000000002ca9040000000000fe
:100a700048a9040000000000e4a9040000000000f0
:100a800072aa040000000000426c04000100000093
:100a90002a8f040001000000b60e040000000000d0
:100aa0000000040000000000620f040000000000cd
:100ab0003600f800809fbe00829fbe00849fbe006b
:100ac000869fbe003200f8003400f80010002000bd
:100ad000a001880000202000900188000200fa0098
:100ae00040d12300000f78001e0078001000900015
:100af000a00090001e0078003000900004930200d7
:100b0000010000001e007800260502000100000020
:100b10000080fa003400f9003200f9004f03be00f3
:100b20004f02be004f01be004f00be003600f9006c
:100b3000004006003600f800809fbe00829fbe0085
:100b4000849fbe00869fbe003200f8003400f8008b
:100b500010002000a00188000020200090018800e3
:100b60000200fa0040d12300000f78001e00780038
:100b700010009000b00090001e007800300090003f
:100b800004930200010000001e007800de0702004e
:100b9000010000000080fa003400f9003200f90082
:100ba0004f03be004f02be004f01be004f00be000b
:100bb0003600f900004006003600f800809fbe00b5
:100bc000829fbe00849fbe00869fbe003200f80058
:100bd0003400f80010002000a00188000020200050
:100be000900188000200fa0080c82300000f7800fe
:100bf0001e00780010009000a00090001e007800f9
:100c00003000900004930200010000001e007800f4
:100c100026050200010000000080fa003400f900ff
:100c20003200f9004f03be004f02be004f01be006c
:100c30004f00be003600f900004006003600f80004
:100c4000809fbe00829fbe00849fbe00869fbe0024
:100c50003200f8003400f80010002000a0018800e5
:100c600000202000900188000200fa0080c82300c4
:100c7000000f78001e00780010009000b000900077
:100c80001e00780030009000049302000100000074
:100c90001e007800de070200010000000080fa005c
:100ca0003400f9003200f9004f03be004f02be00cd
:100cb0004f01be004f00be003600f90000400600a4
:100cc0003600f800809fbe00829fbe00849fbe0059
:100cd000869fbe003200f8003400f80010002000ab
:100ce000a001880000202000900188000200fa0086
:100cf000e0cc2300000f78001e0078001000900068
:100d0000a00090001e0078003000900004930200c4
:100d1000010000001e00780026050200010000000e
:100d20000080fa003400f9003200f9004f03be00e1
:100d30004f02be004f01be004f00be003600f9005a
:100d4000004006003600f800809fbe00829fbe0073
:100d5000849fbe00869fbe003200f8003400f80079
:100d600010002000a00188000020200090018800d1
:100d70000200fa00e0cc2300000f78001e0078008b
:100d800010009000b00090001e007800300090002d
:100d900004930200010000001e007800de0702003c
:100da000010000000080fa003400f9003200f90070
:100db0004f03be004f02be004f01be004f00be00f9
:100dc0003600f900004006003600f800809fbe00a3
:100dd000829fbe00849fbe00869fbe003200f80046
:100de0003400f80010002000a0018800002020003e
:100df000900188000000fa00011020004008200047
:100e00000493020001000000c0fc2300202b02001c
:100e1000010000000080fa003400f9003200f900ff
:100e20004f03be004f02be004f01be004f00be0088
:100e30003600f900004006003600f800809fbe0032
:100e4000829fbe00849fbe00869fbe003200f800d5
:100e50003400f80010002000a001880000202000cd
:100e6000900188000400fa00010037000000000033
:100e700011118000010f78009e00780062806000f0
:100e80000000e000020032002222a9001b0037000f
:100e90001e00780061006000004078000004e0005f
:100ea0001500320031118000110798009e00780073
:100eb0006c8060000000e000ecff3a00a0d68100ea
:100ec000e50f500007003a001e0090000040780037
:100ed0008040780060ad230034c0020001000000b3
:100ee000e3ff37001e00900000407800ae9402003f
:100ef00001000000deff3700000000008560a9004f
:100f00000080fa003400f9003200f9004f03be00ff
:100f10004f02be004f01be004f00be003600f90078
:100f2000004006003600f800809fbe00829fbe0091
:100f3000849fbe00869fbe003200f8003400f80097
:100f400010002000a00188000020200090018800ef
:100f50000000fa00810020004008200004930200f5
:100f600001000000e2320200010000000080fa00ef
:100f70003400f9003200f9004f03be004f02be00fa
:100f80004f01be004f00be003600f90000400600d1
:100f90003600f800809fbe00829fbe00849fbe0086
:100fa000869fbe003200f8003400f80010002000d8
:100fb000a001880000202000900188000200fa00b3
:100fc000600c2400000f78001e0078005000900094
:100fd000b00090001e0078005000900020009000ab
:100fe00004930200010000001e00780096750200c4
:100ff000010000000080fa003400f9003200f9001e
:101000004f03be004f02be004f01be004f00be00a6
:101010003600f900004006003600f800809fbe0050
:10102000829fbe00849fbe00869fbe003200f800f3
:101030003400f80010002000a001880000202000eb
:10104000900188000200fa0020be2300000f780003
:101050001e00780012bc0200000000000080fa00b0
:101060003400f9003200f9004f03be004f02be0009
:101070004f01be004f00be003600f90000400600e0
:101080003600f800809fbe00829fbe00849fbe0095
:10109000869fbe003200f8003400f80010002000e7
:1010a000a001880000202000900188000200fa00c2
:1010b00020be2300000f78001e0078008cbb0200c9
:1010c000000000000080fa003400f9003200f9004e
:1010d0004f03be004f02be004f01be004f00be00d6
:1010e0003600f900004006003600f800809fbe0080
:1010f000829fbe00849fbe00869fbe003200f80023
:101100003400f80010002000a0018800002020001a
:10111000900188000200fa0020be2300000f780032
:101120001e007800b0bc0200000000000080fa0041
:101130003400f9003200f9004f03be004f02be0038
:101140004f01be004f00be003600f900004006000f
:101150003600f800809fbe00829fbe00849fbe00c4
:10116000869fbe003200f8003400f8001000200016
:10117000a001880000202000900188000200fa00f1
:1011800040c32300000f78001e00780012bc02004c
:10119000000000000080fa003400f9003200f9007d
:1011a0004f03be004f02be004f01be004f00be0005
:1011b0003600f900004006003600f800809fbe00af
:1011c000829fbe00849fbe00869fbe003200f80052
:1011d0003400f80010002000a0018800002020004a
:1011e000900188000200fa0040c32300000f78003d
:1011f0001e0078008cbb0200000000000080fa0096
:101200003400f9003200f9004f03be004f02be0067
:101210004f01be004f00be003600f900004006003e
:101220003600f800809fbe00829fbe00849fbe00f3
:10123000869fbe003200f8003400f8001000200045
:10124000a001880000202000900188000200fa0020
:1012500040c32300000f78001e007800b0bc0200dd
:10126000000000000080fa003400f9003200f900ac
:101270004f03be004f02be004f01be004f00be0034
:101280003600f900004006003600f800809fbe00de
:10129000829fbe00849fbe00869fbe003200f80081
:1012a0003400f80010002000a00188000020200079
:1012b000900188000000fa0030e4810010089000de
:1012c000a000900030e48100100890001000900011
:1012d000049302000100000030e481008000eb0074
:1012e000fabc0200000000000080fa003400f9009f
:1012f0003200f9004f03be004f02be004f01be0096
:101300004f00be003600f900004006003600f8002d
:10131000809fbe00829fbe00849fbe00869fbe004d
:101320003200f8003400f80010002000a00188000e
:1013300000202000900188000000fa0030e48100c5
:1013400010089000f000900030e481001008900038
:1013500060009000049302000100000030e481006e
:1013600011002000fabc0200000000000080fa001a
:101370003400f9003200f9004f03be004f02be00f6
:101380004f01be004f00be003600f90000400600cd
:101390000040da000000fe000a00fa001100200000
:1013a000b1bf9f00c0bf9f006a8057004807070079
:1013b0004fb897000080fa00000006000a00fa000b
:1013c000e20f50001f003e00700b8200e10f500042
:1013d0000600320080232000452320002323200024
:1013e000042320000000e00004003a0080222000d6
:1013f000452220002322200004222000060028008d
:101400009403630002003a0007087800140a73008e
:1014100013a8a30001003a0013a0a0000200780066
:10142000050037001388a300feff32003102fb00e5
:10143000840a78000000e9000000e000f9ff3a00ab
:101440000800370033002000b3bf9f00c0bf9f00db
:10145000d1bf9f00e2bf9f006a8057001e070700b0
:101460006fb99700020078000080fa0000000600c3
:101470000a00fa0051002000b1bf9f00c0bf9f00ca
:101480006a805700160707005fb897000080fa00cf
:1014900000000600889fbe0080047800800b820058
:1014a0000000e00004003a000e0007000084eb009a
:1014b0000000e00008003500880b82000900e00011
:1014c0000500320009004400060007000000e000ab
:1014d00001003d000084eb00080078004f04be00ce
:1014e00000000600800078000100e00003003a00e0
:1014f00000002000800b8a00000005000080eb0047
:1015000002002000828f500002003e00810b8a0002
:101510000000eb000000060000000500839f68004b
:101520000100e00002003d0060001000e0801800b3
:101530000300e00002003d0060011100e08119009d
:10154000050007004f00e00002003b0060001000b3
:10155000e0801800000006006022b80006022000ab
:101560000000d0008180d2000482d2008582d200a7
:101570000000a0000202520083825a0003003100e2
:101580000202420083824a000000a1000603e90033
:10159000f3ff3a0000000600889fbe008a1f780013
:1015a0000004be00c900900069009000808f5000c8
:1015b0000500390009007800a30007008080eb00d7
:1015c0000000e00016003500084578004900900052
:1015d00008587800c00498001900780000b8a300eb
:1015e00004003a0000a8a30007003200ea4f5400ac
:1015f00005003a0009007800ec0107008080eb004c
:101600000000e00006003a0000c020001900600061
:101610000200320049009000e00498008a80fb003c
:10162000010078004f0578004f04be00000006005e
:101630000900370030427800b1417800834f5200f2
:101640000400320010002000060031000080eb0092
:10165000000006000201e9000200e000f5ff3a0088
:101660000000eb0000000600800178000200370057
:10167000b15978000201e9000200e000fcff3a00e5
:1016800000000600800178000200370081597800d0
:101690000201e9000200e000fcff3a000000060041
:1016a00000017800820178003204e000fdff3a007a
:1016b00003017800b1417800035978000304e00089
:1016c000fcff3a0000000600020037000304e000bf
:1016d000060032000001780002007800b041780076
:1016e00081cf5100f9ff3a00010037000001eb0003
:1016f0000200780000000600020037000204e0004b
:101700000b0032008101780000027800304178003f
:10171000b14f5100f9ff3200100020001442780050
:10172000934f5200030031000080eb0000000600e0
:101730000000eb000000060000017800b1417800d5
:10174000035978000304e000fcff3a0000000600a3
:1017500080007800010178003104e000fdff3a00cc
:1017600000005100000006000c003700b041780076
:10177000b1cf5100060032001000200095427800e1
:1017800094cf52000b0031000080eb0000000600f7
:101790000304e000060032000201e90001027800c3
:1017a000800278000200e000f0ff3a00000005002f
:1017b0000000eb0000000600800178000200370006
:1017c000845978000201e9000200e00006003200be
:1017d000314278000404e000f9ff3a0002003700cb
:1017e0008059eb000201e9000200e000fcff3a0032
:1017f00000000600889fbe0081047800194478002c
:101800000804e0000e00320006003700d2417800e4
:101810000304e0000a003200d1cf1100fbff3200c8
:101820000000e8008800fb00a7ff07000000e000c0
:10183000030032000901780080007800f3ff3700d0
:101840004f04be0000000600889fbe008a1f78007b
:1018500000047800c8009000680190000000eb00d0
:10186000828f50003c0039001800780022002900c7
:1018700002016000e20f5100070032000120240045
:101880000000e00001003d0001202000008c7000fd
:101890000080eb00300037000200260002006000ec
:1018a000820f500009003a0038009000808f5000ed
:1018b00006003900080078003c010700800078002d
:1018c0000080eb000100e00023003a0018057800da
:1018d00000c020000000650018003a00a804900035
:1018e0006002200008004000808f540013003a007e
:1018f00000202000cb030700200498000000e00037
:1019000005003a0029049800490498008904e80079
:1019100039049800080037000a60a0000a0c78001b
:10192000400498000120200080804000310498008d
:10193000400c9800500c9800bb0007002800900055
:1019400050049800380090006004980000002600c1
:10195000180c70000000eb004f0578004f04be002b
:1019600000000600ee874700889fbe008a9fbe00e9
:101970008c9fbe008e1f7800f0b79f000106780094
:101980008205780000047800080578000a047800d1
:10199000b84678000d00fb008c0007000000e00056
:1019a000f9ff3a00d0c2b30080cf560003003200e6
:1019b00000c0e90080cf560002003a000a05e800a6
:1019c00001003700804678000b00e000050035007c
:1019d000e18f55000300320040022000808f550047
:1019e000060034006044b8000c00e00070003200d3
:1019f0007fb09700000e78006d0037000b00e0000c
:101a00000e003200f08f55001a003a0000c3b300f8
:101a10009a4f100017003a001a40900081c7b30097
:101a2000814f50000300320081c5b300814f500048
:101a300010003a000a85e8000e003700ab002000d5
:101a400000c3b3009a4f10000a003a001a409000f9
:101a500081c7b300814f5000040032008b0020008a
:101a600081c5b300814f500002003a000a85e800aa
:101a70000b0120000a0078000002780004007800c2
:101a800001c3b300b0cf1000fbff320004077800a1
:101a90006044b800b4b79f000d00370001f4230084
:101aa00081405000c1ef9f006159b9000800be009d
:101ab000900507004fea97000401fb00cf91de007c
:101ac000c8b79f00d9b79f00020440008384480034
:101ad0008e0278003e00fb0085bf9f004300070098
:101ae0000b0178008000780000f4230077030700e2
:101af0008fba97000000e000e8ff3a003fb297007d
:101b0000850f550005003a006044b8000c00e00065
:101b100027003200ffb297002400370004825200f1
:101b200050f6230060c07d000000fb000002520060
:101b30001700330011003a004fe997000200fb0044
:101b4000cf80de000000540081805c00800f5400d4
:101b5000818f5c00090039006159b90085bf9f0081
:101b60007dfe07008fba97004fb19700dfb1970055
:101b7000820f5000838f58000500320020022000a1
:101b8000600a8a000084eb008084eb0005003700c7
:101b9000d0c2b30080cf560002003a0060041400a7
:101ba000e0841c000c00e00001003200050e78000b
:101bb0000800be004f0778004f06be004f05be006c
:101bc0004f04be00ef00b100000006006900e10014
:101bd000040035006d00e100030034000002b10094
:101be00001003200000005001000050080007800b0
:101bf0001104b100030035009101b10001003c0067
:101c00000050a00000000600700a82000000e00002
:101c10000100320000000100c01424000000060092
:101c200060eb20009b003700881f7800a816240076
:101c30001804e00003003a00f9ff070020c0b300d9
:101c4000004c78004f04780000000600889fbe001a
:101c50000004780008007800540007008004780031
:101c600000042000180060000200320028009000ec
:101c7000870207000000eb00200498003840900025
:101c80000004e000050035000000fb00c2fd070075
:101c90000000e000010032008084eb00181090008a
:101ca0000000e00008003200f1fd07000000e00045
:101cb000010032008084eb001810900074020700cd
:101cc0000000eb00101498000008200018006000cd
:101cd000150032000001eb006000b800e3d82300db
:101ce0000202d00063027a00880f520005003a0019
:101cf0000000400081804800008041000008eb00a7
:101d00000600370061004000e08048000201e80062
:101d1000e80f5000e08f5800f0ff3a00080078000c
:101d20005b0207000e003700000c780000c0eb00db
:101d30003044980060022000080040002004980011
:101d40004004980050049800400c980060049800eb
:101d5000500c98007004980076004400000c980025
:101d6000090078004f04be0000000600881f7800bc
:101d70000004eb006140b800e2ff2f00f3ff2f00ea
:101d8000dc040700c2d92300620078000000e000f4
:101d900001003200adff07000804e800e80f54001e
:101da000f4ff3a004f04780000000600889fbe0050
:101db000000478000800e0000e003a008004eb0008
:101dc0008800d000e0d82300610078000000e00027
:101dd00004003200f5ff07000000e00001003d00b4
:101de0008084eb000804e800e80f5400f4ff3a0098
:101df0002500370000002200180060008004eb007e
:101e000021003200a80490000f00370009015100a2
:101e1000384090000000fb008900780067fd070053
:101e20000000e00007003c002800900040049800fb
:101e300060049800500c98001890a0008084eb007b
:101e4000110037008084440048019000828f5400c4
:101e5000eeff3900280090004004980098007800b8
:101e600002c020000281600001003a0038009000aa
:101e700001e8a3000200320060049800010037006e
:101e8000500c98008004eb00090078004f04be005d
:101e900000000600010020000100e0000800320000
:101ea000010080000100e000050032008100e9002f
:101eb000010088008100d0000200800000b178009d
:101ec00000000600881f78000204780008017800ee
:101ed000e5fd0700080040004f0478000000060000
:101ee0000000fa00881f780000047800ea8157009b
:101ef0003fb997008800780020f62000070007000f
:101f00000000e000020035008040eb000174780022
:101f10004f0478000080fa00000006006200fa001a
:101f2000889fbe008a1f7800000578008104780031
:101f3000020478008300780080f92f000f00400031
:101f4000610407009a979f00a9979f000000eb008b
:101f5000b09f9f001885fb008a04fb000a05ea0079
:101f60004f55de0050022000808f54000d003200db
:101f7000e10f55000b003a000a0178008800780054
:101f80002f9097009f91970003000100a0979f005a
:101f90000000e0008e0032003f9897000000e8004b
:101fa000b09f9f000a04440050022000808f54001c
:101fb000040032000900e000e6ff3a003f98970075
:101fc000840037000000eb00909f9f00809f9f00df
:101fd000f0979f00e0979f00d0979f00c0979f00c9
:101fe00007003700010c24000100500000004000f1
:101ff000410b240061007800df9897000100700019
:10200000d09f9f0088047800090478003845780044
:102010008a00fb00000c2400abfd07000000e0007c
:10202000f0ff3a00a1c2b300814f55000e003a0004
:10203000cf8897000180e900c08f9f0010007800d2
:10204000c09f9f000000e00005003d000000ea0086
:10205000c09f9f005f9897000020a000d09f9f0026
:102060000904e8000f003700c09f9f000000eb004c
:1020700005003700f2ff2700820f500002003200f7
:102080006a01b900028040000904780088047800e1
:10209000b900fb000103b100e98f5000f5ff3600e5
:1020a000c09f9f00e0c2b300984f100002003200b2
:1020b0000080eb0019003700a0c2b300d84f100019
:1020c00007003a00cf8897000180e900c08f9f0089
:1020d00010007800a09f9f000804e800100037005f
:1020e0000000eb00a09f9f008800780005003700eb
:1020f000f3ff2700830f5000020032006a02b9008c
:102100000400410001047800880078003101fb00e0
:102110000203b100e90f5100f5ff3600a09f9f00b8
:10212000984478008900fb00c00a240066fd07007f
:102130000000e000020032000804e800010037005f
:102140008044eb00c97f9f0080c6b30080cf54005d
:1021500004003a0098cf14000a003a00664050008c
:1021600006003700c0c6b30080cf540005003a0017
:1021700098cf140003003a0065404000c07f9f00e4
:102180000804e8001801fb00e3fb2f008f814100e9
:1021900081f92f008f804000a0f92f000f00400030
:1021a000100007000000e00009003a00e1fb2f00ea
:1021b0008f804000a0f92f000f00400006030700a9
:1021c0000000e000020035000804e80061ff37006d
:1021d0000080eb004f0578004f04be000080fa003d
:1021e00000000600889fbe008a1f78000004780067
:1021f000e0c6b300804f5100c100320015003c0022
:102200006b405000804f5100240032000a003c0017
:1022100070405000804f5100fa003200654040008d
:10222000804f51006800320050c2b300804f51000f
:102230000b013a000701370040c6b300804f510040
:102240001b00320065404000804f510004013a00fd
:102250001700370030c7b300804f5100e90032004b
:1022600007003c0064405000804f5100560032008f
:102270000040e800804f5100f9003a00d3003700d9
:1022800050c7b300804f51004f0032006340400000
:10229000804f5100f2003a004b0037001181e900f5
:1022a000820878007800900012417800ea00370038
:1022b00028609000c4c6b300844f500007003a0065
:1022c0001102780064005200800878001002be00fd
:1022d0004fabde00860378001100370014c7b3004f
:1022e000844f500003003200a4c6b300844f500056
:1022f00006003a0011027800680052008008780059
:102300003002be002003be00050037001180e90046
:102310008008780010027800cfa2de00612bb9009f
:10232000049cbe000694be002860900081c6b300e5
:10233000814f50000d00320021c6b300814f500084
:1023400004003a000402fb00cfa2de00612bb900ba
:102350000800370041c7b300814f5000030032002e
:10236000e6c04000814f500004003a00cfa2de00da
:10237000612bb900049cbe000694be003802be006a
:102380002803be0078009000d1c2b300e00f5200d5
:10239000e08f5a00e00f5b00e08f5b000800350023
:1023a000881090000118a30002003200b1c2b300ef
:1023b000030037000108a3004c00320001c2b30043
:1023c000817178004700370028609000c4c6b300d0
:1023d000844f500006003a00110278006400520059
:1023e000800878001002be006033b800110037008a
:1023f00014c7b300844f500003003200a4c6b300da
:10240000844f500006003a00110278006800520024
:10241000800878003002be002003be0005003700af
:102420001180e90080087800100278008002eb003b
:102430006033b800049cbe000694be002860900083
:1024400081c6b300814f50000d00320021c6b30099
:10245000814f500004003a000482fb008002eb0030
:102460006033b8000800370041c7b300814f500007
:1024700003003200e6c04000814f500004003a00e3
:102480008002eb006033b800049cbe000694be00de
:10249000081090000038a300140032003802be007b
:1024a0002803be00e00f5200e08f5a00e00f5b00ef
:1024b000e08f5b000d00320080c7b300804f5100f9
:1024c0000300320080c5b300804f510007003a007e
:1024d0007800900001c3b300817178000000e8002b
:1024e000827178000000e800700498007800900085
:1024f0008081410063049800824078003e003700ec
:1025000028619000c3c6b3001180e900834f5100d9
:10251000220032000a003c00e4c15100834f510008
:102520002500320083c1e800834f510013003200c0
:10253000e8c15100834f51001e003a000a003700e5
:1025400043c7b300834f51001b003200e6c1410076
:10255000834f510018003200e9c15100834f5100f0
:1025600014003a0005003700800878001000780059
:10257000485c9000084878004100370080087800e7
:1025800010007800680a9000cfa2de00612bb9002d
:102590000498be000690be0039003700800878001d
:1025a0001000780068099000cf91de000288be001c
:1025b000330037001180e9008008780010007800af
:1025c000680c9000080878002d0037001180e900a1
:1025d0008008780010027800cfa2de00612bb900dd
:1025e000049cbe000694be007800900080814100eb
:1025f0006304980081c7b30008007800c700070093
:102600001f0037001180e90080087800100578006d
:102610006a049800d80c90000900e00004003d0016
:102620000a0078004afc07008004780007003700a1
:10263000090178008000eb000a007800a300070081
:102640000000e000010032008a045000190c9800dc
:102650000b00370078009000827178000600370088
:1026600078009000808141000204e00001003a00ff
:1026700052c2b300824978000000e800700498005c
:102680000000eb004f0578004f04be00000006007c
:102690000000e0002f003200c0017800e38f5100fd
:1026a0002c0036000308a3002a003a00910a820099
:1026b0000100e00002003200810f500004003100f0
:1026c00011009800900a8a001600370082007800f6
:1026d000110190000200e00002003200800f510062
:1026e000faff39001102780084824000850f500003
:1026f00018003900808f520003003a00830842001e
:1027000001007800070037000200e00003003200fb
:1027100083014000830f51000e0039001200980021
:1027200090009800900090000100e0000900320045
:1027300010014000828f500006003a00021524006c
:102740000009eb0010017800110841009100900091
:102750001100980000000600889fbe000004780069
:10276000810a82000100e0000200320001007800ce
:102770000d003700910a8200201524000400370064
:10278000910f5400250036000180e8009100900070
:102790000100e000faff3a0010003700920f5400e9
:1027a0001e0036000280e800100178000200e00000
:1027b000faff3a0011017800910a820020152400e6
:1027c00004003700910f5400140036000180e80027
:1027d00091009000828f5000faff3a00690b82004e
:1027e000888f5400010031008804780009007800c7
:1027f000400007000000e00004003a00888f540009
:10280000050032008904d100f5ff3700091878006f
:102810009fff0700d2ff37000000eb004f04be000f
:1028200000000600881f7800630440000800a10033
:102830008000eb00800f540021003600e30f5400ad
:1028400001003e004800200008007800c2ff070099
:102850008000eb000000e0001900320090007800da
:102860009101780064815100880f5100030031000c
:10287000110190000208780007003700088140002d
:10288000020878009101900013019800100178006f
:102890001109140088087800100178000000eb008e
:1028a0000200e00004003200920190000300e0000a
:1028b000010032000280e800800a8a008180e8007e
:1028c000010078004f047800000006000300370084
:1028d000b0cf1000050032000201e900800178004d
:1028e0000200e000faff3a00000005000300780053
:1028f00000000600800078000000eb000100e0000e
:102900000500340001007800e2fa0700e10f400002
:1029100001003a000000eb0000000600fc874700c1
:10292000889fbe008a9fbe008c9fbe008e1f7800cd
:102930000006780080c5b30080cf50000a00320046
:102940007740400080cf50000a00320069404000cc
:1029500080cf50000b0032005004240080bf9f0045
:10296000ae0020000a0037004203240082bf9f000f
:10297000060037005304240083bf9f008e00200010
:10298000030037005404240084bf9f000e01200080
:102990003c02be002c03be000605be000404be00bf
:1029a00040c6b30080cf50000300320065404000b5
:1029b00080cf50000b003a00e00f5200e08f5a0029
:1029c000e00f5b00e08f5b0006003d006000b80098
:1029d0006011b800040450008584580006055900b1
:1029e00087855900e80f570004003200400020009e
:1029f000f00f570038003a00010037003000200087
:102a0000e00f5400e08f5c00e00f5d00e08f5d00a0
:102a100004003a00dc0890008d0120000100e00075
:102a2000060032008e00e900888060008fba9700af
:102a3000e5c07800f1ef9f007d0120008000780064
:102a40008100e900050033008b05d1000a85d30021
:102a50008984d3000884d300f9ff3700089ebe00a4
:102a60000a96be00120037008d06e9008e00e900cc
:102a7000848060000fb99700e2c1780082fd2f00ca
:102a80000f01410003f17e00800078008100e90021
:102a9000050033008783d1000683d3008582d300ed
:102aa0000482d300f9ff3700049ebe000696be00e4
:102ab0003c02be002c03be00e00f5200e08f5a0023
:102ac000e00f5b00e08f5b008b0034000d00e00046
:102ad000e5ff3c00880037002c60900081c6b30001
:102ae000814f50000b00320006003c000004e00063
:102af00008003200e6c05000814f50004e003a00fe
:102b000004003700c1c6b300814f50004a003a00ac
:102b1000210037000800e00004003a005c08900043
:102b20008d0120000000e0000600320011000900c5
:102b30000e84d8000fb99700e2c07800f1ef9f0033
:102b40007d012000110009000e84d8000a00370022
:102b5000110009000e04d8008d06e9000e81b900ad
:102b6000020454008fb8970061417c0081fd2f0062
:102b70008f80400082f07e00000478000800e000b2
:102b8000020032000d00e000f1ff3c00cfc4de0087
:102b9000614db90025003700e00f5400e08f5c0064
:102ba00004003a005c0890008d0120000000e00065
:102bb000070032006171b9000800be004a01070039
:102bc0008fb99700e3417800f3ef9f007d0120006b
:102bd0006171b9000800be005ffa07000b00370002
:102be0006171b9000800be004cfa07008d06e900cb
:102bf00000f1b900020454000fba9700e4427c00cf
:102c000084fd2f000f02420005f27e000004be008a
:102c1000e00f5000e08f5800020032000d00e0008d
:102c2000efff3c004fcdde008a057800089ebe0015
:102c30000a96be0030003700e00f5400e08f5c00c1
:102c4000e00f5d00e08f5d0004003a005c0890003a
:102c50008d0120000000e000090032006172b9001f
:102c6000612bb9000800be000a01be00c7010700c1
:102c70000fba970064427800f4ef9f007d012000b6
:102c80006172b900612bb9000800be000a01be00e4
:102c9000b70107000d0037006172b900612bb90060
:102ca0000800be000a01be00bc0107008d06e90055
:102cb00000f2b900040454008fba970065427c000a
:102cc00085fd2f008f82420084f27e00009ebe00b0
:102cd0000296be003c04be002c05be00e00f54006e
:102ce000e08f5c00e00f5d00e08f5d0002003400cb
:102cf0000d00e000e8ff3c00e80f570010003a002c
:102d00000c1090000038a3000d003200f78f560021
:102d100006003e0085fd2f008f824200e5c07e0048
:102d200000c3b30080cf5000050032008d06e900db
:102d300002c3b30081fd2f008f80400082f07e002f
:102d400078811600120e98006c00900083fd2f0011
:102d50008f8141008d80410043fa07001c089000dc
:102d6000dc089000810f500006003d0000805000fc
:102d7000000e98000c1090000040a1000016980072
:102d80000f0037000100e0000d003d008c109000a6
:102d9000f4806000f08f500009003a007c09900038
:102da000fc009000810051000c09900082805000ce
:102db000008050004240a90001003400000e98003d
:102dc0004f0778004f06be004f05be004f04be00ff
:102dd000cf01b100000006000400fa00889fbe0089
:102de0008a9fbe008c1f78000004780001067800de
:102df000f80d90007800900080855500080890003c
:102e0000808555001808900080855500280890009e
:102e1000808555003808900080855500480890004e
:102e2000808555000002220090bf9f000003230010
:102e3000a0bf9f00081090000028a30015003a00d2
:102e40000b00e000130034000b0578008a047800c2
:102e5000e20f55000100360029002000c801900053
:102e600009017800ee80570058009000030001002f
:102e7000500498000000e0008c00320068089000c8
:102e800009004000600c9800090555004240a90067
:102e9000eeff3c00780190000200e0000c003400de
:102ea000c80190008c0078005800900003000100d9
:102eb000500498008080eb000000e0007c003200ad
:102ec000e80890007800900000804000600c9800b6
:102ed000880c90000900e00011003400090578001a
:102ee000e28f5400010036002a002000c801900043
:102ef0000a017800ec8057005800900003000100a0
:102f0000500498000000e00068003200680890005b
:102f10000a004000600c98008a845400edff3700de
:102f2000180990000200e0000c003400c801900075
:102f3000e800900058009000030001005004980041
:102f40008080eb000000e00059003200e8089000ab
:102f50001808900000804000600c9800a80c9000b9
:102f60000900e0001100340009057800e28f5400e8
:102f7000010036002a002000c80190000a017800f4
:102f8000ec805700580090000300010050049800a6
:102f90000000e00045003200680890000a00400090
:102fa000600c98008a845400edff370038099000c7
:102fb0000200e0000e003400e800900018089000c5
:102fc00080804000c801900058009000030001007c
:102fd000500498008080eb000000e00034003200d4
:102fe000e80890003808900000804000600c9800cd
:102ff000c80c90000900e0001100340009057800b9
:10300000e28f5400010036002a002000c801900021
:103010000a017800ec80570058009000030001007e
:10302000500498000000e000200032006808900082
:103030000a004000600c98008a845400edff3700bd
:10304000081090008000eb000028a3001800320058
:103050000b00e000160034008b04780009057800ae
:10306000e28f5400010036002a002000c8019000c1
:103070000a017800ee80570058009000030001001c
:10308000500498000000e00008003200680890003a
:103090000a004000600c98008a8454004240a90055
:1030a000eeff3c008000eb00010037008080eb0069
:1030b000010078004f0678004f05be004f04be00a7
:1030c0000080fa00000006000108780000000600f9
:1030d00000c0da000000060000c0da0000000600b0
:1030e00000c0da00000006001bf907000400be0063
:1030f00000000600020ab900001bb9000200b80077
:10310000810042008100430000000600889fbe004d
:103110008a9fbe0030044200b0844a0030054b0054
:1031200090854b006000b1000898be000a90be0078
:103130000440e10005c8e10006d0e10007d8e10045
:1031400002003100680040001008e8004f05be0092
:103150004f04be0000000600889fbe008a9fbe008c
:103160003004be002005be000418540005985c0021
:1031700006185d0007985d00110020000440e10082
:1031800005c8e10006d0e10007d8e10001003900e0
:103190008000eb00108810004f05be004f04be00f9
:1031a000000006001200fa00889fbe008a9fbe0041
:1031b0008c9fbe00e0b79f00f1b79f0082bf9f00c9
:1031c00093bf9f000605be000404be000000eb0094
:1031d000d0b79f00c0b79f00b0b79f00a0b79f00b7
:1031e00090b79f000006eb005fb19700cfb097004b
:1031f000820141003fb097000200e00004003d0062
:10320000370007007e805700c0ff0700030037002b
:10321000330007007e805700cfff0700dfb697001e
:103220000d00e0000c0035006fb29700ffb2970070
:103230000fbb97009fbb97001000200001002000eb
:103240006011b800000272008182720002037300f4
:10325000838373001b0007000c06e80001042000b4
:10326000810f5600e0ff3a000d00e00004003d0031
:103270000802be000a03be007e805700a3ff0700bd
:103280005fa897000000e00005003a001fb2970019
:10329000afb297003fb39700cfb397000900070084
:1032a0006fb09700ffb097000fb997009fb99700d4
:1032b0004f06be004f05be004f04be000080fa005e
:1032c000000006000100070000000600a4b79f00f0
:1032d000b5b79f00c6b79f00d7b79f000000060094
:1032e0004f09de0082817100b3b79f004f01de00fd
:1032f0008180400082807000a1b79f008fb097004e
:103300004f09de00000040000200700090b79f00ef
:103310007fa897004f01de0081804000828070000e
:1033200081b79f000d0007004f3ade00000040000b
:1033300004007000f0af9f00080007000402420084
:1033400085824a0006034b0087834b00dfff07009e
:103350000802be000a03be00000006002fb297005c
:10336000bfb297004fb39700dfb39700000006008d
:10337000881f780018002000881f780089ff070048
:103380008f87e9004f04780000000600801feb00e3
:1033900084ff07008f87e90000000600889fbe00b9
:1033a0008a9fbe00e00f5000e08f5800e00f5900e8
:1033b000e08f59000c003d006044b8006055b80033
:1033c0000000540081805c0002015d0083815d008b
:1033d000180020001500070008003d001800070035
:1033e0000004eb00050037000004eb000f000700ad
:1033f00002003d001200070018002000dcff07005b
:103400000800e000060032006022b8006033b80017
:103410000000520081805a0002015b0083815b0042
:103420004f05be004f04be0000000600e00f520032
:10343000e08f5a00e00f5b00e08f5b0000000600a9
:103440006044b8006055b8000402540085825c00f6
:1034500006035d0087835d0000000600889fbe00b4
:103460008a9fbe008c1f7800e00f5000e08f58004c
:10347000e00f5900e08f59000d003d006044b80096
:103480006055b8000000540081805c0002015d00be
:1034900083815d001c0020000820e10009a8e100f4
:1034a0000ab0e1000bb8e1000d003d000800370054
:1034b0000006eb00e00f5200e08f5a00e00f5b00c7
:1034c000e08f5b0006003d006044b8006055b80026
:1034d0000402540085825c0006035d0087835d0062
:1034e000aaff07000c00e000060032006022b800ce
:1034f0006033b8000000520081805a0002015b0076
:1035000083815b004f0678004f05be004f04be006c
:0435100000000600b1
:020000040000fa
:1035140064650000627500006700000064650000d7
:103524006275000067670000696e00006720000094
:10353400636f00006e740000726f00006c00000086
:10354400666c00006f61000064000000666c00009f
:1035540061730000682000006c6f0000616400006b
:10356400206300006f6d00006d6100006e64000058
:10357400006600006c6f000061640000203c0000e5
:10358400666900006c6500003e2000003c69000094
:103594006e740000656c00005f68000065780000d0
:1035a4005f6c0000696e0000653e0000006600006c
:1035b400647500006d700000006600006c6100001e
:1035c4007368000020640000756d00007020000026
:1035d400636f00006d6d0000616e00006400000008
:1035e40066640000756d0000702000003c660000f9
:1035f400696c0000653e0000203c00006f6600001e
:1036040066730000657400003e2000003c6c0000fe
:10361400656e00003e0000006665000072610000f7
:1036240073650000006600006c61000073680000b0
:1036340020650000726100007365000020630000d3
:103644006f6d00006d6100006e6400000066000094
:103654006572000061730000652000003c66000094
:10366400696c0000653e0000006e0000766d00008d
:10367400656d0000006e0000766d0000656d000051
:10368400206f000070650000726100007469000022
:103694006f6e0000730000006e7600006d65000020
:1036a4006d2000003c72000065610000647c000035
:1036b4007772000069740000657c00006465000096
:1036c4006c650000746500007c640000756d00008a
:1036d400707c000072610000773e0000203c000016
:1036e4006b650000793e0000007300006600000076
:1036f4007365000072690000616c000020660000c0
:103704006c61000073680000206f000070650000a9
:1037140072610000746900006f6e000073000000a5
:1037240073660000203c00007265000061640000c4
:103734007c77000072690000746500007c650000fd
:1037440072610000736500003e2000003c610000cf
:103754006464000072650000737300003e20000082
:103764003c64000061740000612e00002e2e0000f5
:103774003e000000766500007200000064690000ed
:10378400737000006c610000792000007665000011
:1037940072730000696f00006e200000696e000003
:1037a400666f0000726d000061740000696f0000b4
:1037b4006e00000073740000617400007300000068
:1037c400647500006d7000002073000074610000d7
:1037d40074690000737400006963000020630000d2
:1037e4006f7500006e7400006572000073000000c5
:1037f4006d6500006d6f00007279000000730000b9
:10380400686f0000772000006d6500006d6f000098
:103814007279000020730000746100007469000074
:103824007374000069630000730000006d6500009c
:103834006d6f000072790000203c0000637c000082
:10384400737c0000763e0000003f0000006400002e
:1038540069730000706c0000617900002061000051
:1038640076610000696c0000616200006c65000014
:10387400206300006f6d00006d6100006e64000045
:103884007300000062740000736500006e64000041
:1038940000530000656e000064200000746800009e
:1038a4006520000062790000746500007320000048
:1038b40076690000612000004254000000620000ac
:1038c40074730000656e0000642000003c62000018
:1038d40079740000653100002062000079740000f2
:1038e40065320000202e00002e2e00003e00000055
:1038f4006673000000660000696c0000652000002b
:103904007379000073740000656d0000206300008b
:103914006f6d00006d6100006e64000073000000b4
:1039240066730000203c00007265000061640000c2
:103934007c77000072690000746500007c640000fc
:10394400697200003e2000003c660000696c0000c3
:10395400653e0000203c00006c6500006e3e0000e7
:10396400006d00006f640000756c000065000000cd
:103974006578000065630000757400006520000030
:103984006d6f0000647500006c650000206300002a
:103994006f6d00006d6100006e6400007300000034
:1039a4006d6f0000647500006c650000203c000031
:1039b40073650000747c000067650000747c00007f
:1039c400636f00006e740000726f00006c3e0000b4
:1039d400006f00007574000000620000656500005f
:1039e400702000006f72000020720000756d0000ee
:1039f400626c000065200000636f00006d6d0000c4
:103a0400616e000064730000006f000075740000b4
:103a1400203c000062650000657000007c720000bc
:103a2400756d0000626c0000655d0000203c0000c4
:103a3400676f00006f6400007c6200006164000036
:103a44003e000000747200006967000067650000b2
:103a5400720000007472000069670000676500006e
:103a64007220000073630000616e00002065000096
:103a74006e670000696e0000650000007469000054
:103a8400636b000000720000657400007572000032
:103a94006e2000006375000072720000656e000005
:103aa4007420000074690000636b00002063000050
:103ab4006f7500006e74000000000000ccbf0000b1
:103ac4008a9a0000909a00008a9a000086c1000039
:103ad400a29a0000a89a0000bb9a000070c20000dd
:103ae400d99a0000df9a0000f29a000010c1000089
:103af4000e9b0000159b0000299b0000bec4000023
:103b0400379b00003d9b00004e9b000056c7000001
:103b1400779b00007a9b0000929b0000c4c30000c6
:103b2400bc9b0000c09b0000bc9b00009ec8000022
:103b3400dc9b0000e29b0000dc9b0000aac80000a4
:103b4400fa9b0000019c0000189c00001ac40000ad
:103b5400279c0000299c0000279c000066cd0000e3
:103b6400449c00004b9c0000619c00004ccb000076
:103b74007a9c00007d9c0000929c000010d0000004
:103b8400b39c0000ba9c0000d29c0000aeca0000a6
:103b9400eb9c0000ef9c0000079d000096ca00000b
:103ba400249d00002c9d0000249d000082d2000072
:103bb400409d0000459d0000409d00000000000065
:103bc4005f9d00005f9d00005f9d00004143000079
:103bd4004b0a0000004e0000414b00000a000000a8
:103be400636c00006f7300006500000064690000ee
:103bf40073610000626c000065000000656e0000e7
:103c0400616200006c6500000066000061630000f2
:103c1400746f00007279000000660000756c00008b
:103c24006c650000726100007365000000720000a2
:103c3400656200006f6f00007400000062610000a4
:103c440074740000657200007973000074610000f0
:103c5400740000006261000074740000657200006a
:103c64007972000065730000657400000062000052
:103c74006174000074650000727900006c6f0000cc
:103c8400676f00006e000000626100007474000041
:103c940065720000796c00006f6700006f660000b9
:103ca4006600000062610000747400006572000028
:103cb4007973000065740000746f000070000000e8
:103cc4007368000075740000646f0000776e000074
:103cd40000730000686f00007765000072720000d6
:103ce4006f7200006c6f00006700000073630000d7
:103cf400616e0000647500006d7000006f6e00005e
:103d040000730000636100006e640000756d0000c4
:103d1400706f00006666000000680000656c0000bb
:103d240070000000f29d000002000000f89d0000f9
:103d340001000000009e000000000000079e00003b
:103d4400060000000f9e000007000000199e0000fe
:103d540005000000209e0000080000002c9e0000ca
:103d640009000000399e00000a000000469e000081
:103d74000b000000549e00000c000000629e000036
:103d84000d0000006b9e00000e000000789e0000f5
:103d940003000000839e0000040000008f9e0000ca
:103da4000f000000646500006275000067200000d9
:103db400257300000a0000006465000062750000bd
:103dc400672000006f700000746900006f6e0000cf
:103dd400733a00000a00000072650000616400008c
:103de4000077000072690000746500000064000040
:103df400756d000070000000646500006c650000d3
:103e04007465000000740000657300007400000015
:103e14007261000077000000ee9e000000000000c8
:103e2400f39e000001000000f99e00000200000063
:103e3400fe9e000003000000059f00000400000037
:103e44008f9e0000050000000a9f0000060000008d
:103e54006e7600006d6500006d2000002573000083
:103e64000a0000006e7600006d6500006d20000001
:103e740073750000707000006f72000074650000bc
:103e8400642000006f700000746900006f6e000011
:103e9400733a00000a0000006572000061730000bc
:103ea40065000000ee9e000000000000f39e00008c
:103eb400010000004e9f0000020000008f9e0000e1
:103ec400030000007365000072690000616c00006b
:103ed400206600006c61000073680000202500006b
:103ee400730a00000073000065720000696100003d
:103ef4006c200000666c0000617300006820000004
:103f040073750000707000006f720000746500002b
:103f1400642000006f700000746900006f6e000080
:103f2400733a00000a00000062650000657000003a
:103f340000720000756d0000626c000065000000f6
:103f4400969f0000000000009b9f000001000000fd
:103f54008f9e000004000000676f00006f64000083
:103f6400006200006164000000000000ae9f0000d9
:103f740002000000b39f0000030000006f75000002
:103f840074200000257300000a0000006f75000013
:103f94007420000073750000707000006f720000e0
:103fa40074650000642000006f70000074690000f4
:103fb4006f6e0000733a00000a000000646900009c
:103fc40072000000ee9e000000000000f39e00005e
:103fd40001000000e09f0000020000008f9e00002e
:103fe400040000006673000020250000730a00002e
:103ff40000660000732000007375000070700000fc
:104004006f72000074650000642000006f7000008f
:10401400746900006f6e0000733a00000a0000002b
:1040240063720000656100007465000000640000b4
:1040340065730000747200006f7900000074000062
:104044007800000072650000706500006174000073
:1040540000670000657400000073000065740000d0
:10406400006300006f6e0000747200006f6c00004b
:10407400006300006f6e00006e6500006374000052
:1040840000680000616c00007400000072650000ac
:1040940073650000740000002ba000000000000005
:1040a4002fa000000100000033a000000200000067
:1040b4003ba000000500000043a000000400000035
:1040c40048a00000060000008f9e000003000000ce
:1040d4006d6f0000647500006c6500002025000011
:1040e400730a0000006d00006f640000756c00002e
:1040f4006520000073750000707000006f7200008e
:1041040074650000642000006f7000007469000092
:104114006f6e0000733a00000a0000006869000036
:10412400640000007370000070000000696f0000fc
:1041340073000000636f00006400000090a00000a2
:104144000100000094a000000200000098a00000fc
:10415400030000009ca000000000000090a00000ec
:104164000200000094a000000100000098a00000dc
:1041740003000000616300006365000070740000c8
:104184006f720000006900006e690000746900002d
:10419400617400006f72000000000000bca0000009
:1041a40001000000c5a000000200000076650000c8
:1041b40072730000696f00006e300000007600002a
:1041c40065720000736900006f6e0000310000002a
:1041d4007465000073740000300000006661000024
:1041e400637400006f720000795f00007265000064
:1041f40073650000740000006261000074740000c4
:1042040065720000790000006261000074740000af
:1042140065720000797400006f7000000062000095
:10422400617400007465000072790000726500001a
:104234007365000074000000626100007474000083
:1042440065720000796900006e6600006f0000006e
:10425400d8a0000000000000e1a000000100000060
:10426400eaa0000002000000f0a00000030000002b
:10427400fea000000400000006a1000005000000ec
:1042840011a10000060000001ea1000007000000ac
:10429400234600004e420000303000004634000047
:1042a40030300000303000002300000023460000be
:1042b4004e430000205300005050000020410000f5
:1042c4006363000065700000746f000072200000da
:1042d400303000003030000030300000303000005a
:1042e400303000003030000023000000234600007e
:1042f4004e420000303000004634000030300000f0
:104304003031000023000000234600004e4300002b
:10431400204800004944000020410000636300007d
:1043240065700000746f00007220000030300000df
:1043340030300000303000003030000030300000f9
:104344003030000023000000234600004e420000ed
:1043540030300000463400003030000030320000bd
:1043640023000000234600004e43000020490000c3
:104374004f5300002041000063630000657000009b
:10438400746f0000722000003030000030300000f4
:104394003030000030300000303000003030000099
:1043a40023000000234600004e420000303000008d
:1043b4003031000030300000303500003030000073
:1043c40023000000234600004e4300002043000069
:1043d4004f44000020480000494400002030000001
:1043e400303000003530000030230000002300008e
:1043f400464e0000423000003030000031300000f2
:104404003030000035340000302300000023000069
:10441400464e000043200000434f000044200000ab
:1044240048490000442000003030000030350000ce
:104434003430000023000000234600004e420000f8
:104444003030000046300000230000002346000006
:104454004e42000020340000314600004239000082
:10446400373000003030000030230000002300000b
:10447400464e000042300000313100003930000067
:104484004530000030300000313000003030000092
:104494003330000030370000383000003034000082
:1044a4004223000000230000464e0000422000008a
:1044b4003431000046420000413600003230000032
:1044c4003031000023000000234600004e4200006b
:1044d4003031000031390000304500003030000038
:1044e4003031000030300000303000003030000047
:1044f4003738000030300000344200002300000050
:10450400234600004e4200002034000031460000e3
:1045140042410000363200003030000030230000f9
:1045240000230000464e00004230000031330000fa
:1045340031300000303000003130000030300000f5
:1045440031300000304600004130000030300000bf
:104554003023000000230000464e000042200000eb
:10456400343100004642000041360000343000007f
:104574003032000023000000234600004e420000b9
:1045840030310000333100003030000030310000a1
:1045940030300000303000002300000023460000cb
:1045a4004e42000020340000314600004241000029
:1045b40036340000303000003023000000230000b7
:1045c400464e00004230000031330000413000000c
:1045d4003530000030300000303000003030000052
:1045e4003030000030300000303000003030000047
:1045f400303000003023000000230000464e00004d
:1046040042200000343100004642000044410000d2
:1046140030300000304300003030000030350000fe
:104624003030000030300000303000003030000006
:1046340030300000303000003030000030300000f6
:10464400303000003030000023000000234600001a
:104654004e42000030310000334100003031000090
:1046640030300000303000003030000030300000c6
:1046740030300000303000003030000030300000b6
:104684003030000023000000234600004e420000aa
:104694002034000031460000424400004130000054
:1046a4003030000043300000303000003130000072
:1046b4003030000030300000303000003030000076
:1046c4003030000030300000303000003030000066
:1046d400303000003023000000230000464e00006c
:1046e400423000003133000041300000303000001f
:1046f4003030000030300000303000003030000036
:104704003030000030300000303000003030000025
:104714003023000000230000464e00004220000029
:1047240034310000464200004441000030300000b3
:1047340030430000303000003030000030300000e2
:1047440030300000303000003030000030300000e5
:1047540030300000303000003030000030300000d5
:1047640030300000230000004aa1000058a10000de
:1047740078a1000086a10000a6a10000b4a1000059
:10478400d4a10000e4a10000f9a1000009a20000e6
:104794001ea2000028a2000039a2000055a20000b9
:1047a40066a2000082a2000093a20000ada2000055
:1047b400bea20000d0a20000e1a20000ffa20000ff
:1047c40028a3000046a300006fa300008da30000ef
:1047d40046410000435400004f520000595f00005e
:1047e4005245000053450000540d000000420000f3
:1047f4006174000074650000727900003a200000c2
:1048040025640000252500000d000000257500002a
:104814006d7600002c200000256400006d6100000e
:104824002c200000257500006d610000682c00003c
:104834002025000075610000637200002c20000038
:1048440025640000252500002c200000737400005e
:10485400612000003078000025300000327800002c
:104864000d000000546500007874000052650000db
:10487400706f0000727400002e630000005300008b
:104884006f6300006b650000744300006f720000ea
:10489400653a00000d56000065720000736900005f
:1048a4006f6e000020200000202000002020000067
:1048b4002020000020250000752e00002575000032
:1048c4000d420000756900006c640000204e000079
:1048d400756d000062650000722000002020000059
:1048e400202500006c7500000d4200007569000071
:1048f4006c64000020440000617400006520000026
:10490400202000002020000020250000782d000039
:10491400257800002d250000783a00002578000055
:104924000d00000079650000730000006e6f000048
:104934000050000043420000205200006576000051
:1049440069730000696f00006e20000020200000e1
:104954002025000030350000752d0000256300007f
:104964000d4200006f6f0000746c00006f61000066
:104974006465000072200000202000002020000058
:1049840020250000730d00000d4200006c7500002e
:10499400657400006f6f0000746800003a0d000039
:1049a4000056000065720000736900006f6e00001d
:1049b40020200000202000002020000020200000f3
:1049c40020250000642e0000256400000d42000034
:1049d400756900006c640000204e0000756d0000d5
:1049e40062650000722000002020000020250000e5
:1049f4006c6400000d420000756900006c640000e6
:104a040020440000617400006520000020200000a4
:104a14002020000020250000782d000025780000cb
:104a24002d250000783a0000257800000d44000090
:104a340065760000696300006520000041640000a1
:104a440064720000657300007320000020250000dc
:104a540030320000783a000025300000327800003f
:104a64003a25000030320000783a0000253000007a
:104a7400327800003a25000030320000783a000015
:104a840025300000327800000d0000005072000054
:104a94006f660000696c00006573000028730000f5
:104aa4002920000020200000202000000020000019
:104ab400000d0000004100006374000069760000ee
:104ac40065200000507200006f660000696c0000f1
:104ad4006520000020250000730d0000436c0000d9
:104ae40061730000732000006f6600002044000022
:104af40065760000696300006520000030780000de
:104b040025300000327800002530000032780000a3
:104b140025300000327800000d0d0000004b00002d
:104b240065790000626f000061720000642000007b
:104b34004c6100006e67000075610000676500004d
:104b44003a200000256400000d00000053750000a9
:104b5400707000006f720000746500006420000033
:104b64004c6100006e67000075610000676500001d
:104b7400733a000020000000257300003d2500006a
:104b840064200000000d00000d00000053630000cd
:104b9400616e0000204500006e670000696e000031
:104ba400653a00000d48000061720000647700005f
:104bb40061720000654900006420000020200000ac
:104bc4002020000020250000780d0000566500001c
:104bd40072730000696f00006e2000002020000046
:104be4002020000020200000202000002573000069
:104bf4000d0d000000530000746100007469000092
:104c04007374000069630000204300006f750000a6
:104c14006e74000065720000733a00000d0000001d
:104c2400436f00006e6e0000656300007420000096
:104c34002020000020200000202000002020000070
:104c440020200000256c0000750d000000440000c9
:104c540069730000636f00006e6e000065630000fe
:104c640074200000202000002020000020200000ec
:104c7400202500006c7500000d000000556e00003a
:104c8400626f00006e6400002020000020200000fd
:104c94002020000020200000202000002020000010
:104ca400256c0000750d00000053000063610000d6
:104cb4006e7300002020000020200000202000004f
:104cc40020200000202000002020000020250000db
:104cd4006c7500000d000000466100006374000064
:104ce4006f720000792000005265000073650000b7
:104cf400747300002020000020200000256c0000b8
:104d0400750d000000440000656300006f6400003e
:104d140065200000427900007465000073200000e3
:104d24002020000020200000202500006c750000d9
:104d34000d00000054720000696700006765000000
:104d440072200000526500006c6500006173000071
:104d54006520000020200000256c0000750d000077
:104d6400005400007269000067670000657200006b
:104d740020500000726500007373000020200000c2
:104d840020200000202500006c7500000d000000ac
:104d9400506f00007765000072200000526500002b
:104da4006c65000061730000652000002020000095
:104db40020200000256c0000750d0000005000004c
:104dc4006f770000657200002050000072650000db
:104dd4007373000020200000202000002020000029
:104de400202500006c7500000d000000506c0000d0
:104df400756700006765000064200000496e0000cc
:104e040020540000696d000065200000202000008f
:104e1400256c0000752000006d6900006e750000af
:104e240074650000730d0000004f00006e20000048
:104e34004261000074740000657200007920000073
:104e4400546900006d65000020200000202500004a
:104e54006c750000206d0000696e00007574000020
:104e6400657300000d0000005265000073650000ca
:104e740072760000656400003020000020200000ed
:104e8400202000002020000020200000256c0000cd
:104e9400750d00000042000061740000746500009c
:104ea400727900002043000068610000726700000e
:104eb4006573000020200000202500006c750000b0
:104ec4000d0000004261000074740000657200006f
:104ed40079200000526500006d6f000076610000cb
:104ee4006c73000020200000256c0000750d00008c
:104ef40000530000746100006e640000204d000047
:104f04006f6400006520000043680000616e0000cb
:104f140067650000202500006c7500000d0000008e
:104f24004c6f000067200000546f000074610000a3
:104f34006c20000020200000202000002020000021
:104f440020200000256c0000750d000000250000e5
:104f5400303200007825000030320000782500004f
:104f6400303200007825000030320000782500003f
:104f7400303200007825000030320000780d000047
:104f8400004e00006f6e00006500000053500000ea
:104f9400500000004849000044000000694f000030
:104fa4005300000000e100000000000000c2000007
:104fb4000100000000e10000000000000096000075
:104fc40000000000004b00000000000080250000ed
:104fd40000000000c012000000000000b004000047
:104fe400000000002c01000000000000020100008d
:104ff4000600000003020000001600000003000089
:10500400020000000c000000030200000018000071
:10501400000300000200000004000000030200007e
:10502400001600001042000003020000000c000003
:105034000003000002010000424000001042000092
:105044006810000042390000030200000142000021
:105054004006000068100000424100000302000006
:105064000151000000680000015f0000030200001d
:10507400015100000061000001580000030200001b
:10508400014200005040000000680000104300008e
:10509400b803000002010000510000006801000094
:1050a4005f0300000201000040730000406800003c
:1050b400104300004603000002010000507300008a
:1050c40040010000680400008c030000020100009d
:1050d4005073000040000000680400008a030000d0
:1050e400020100004163000080000000006800002d
:1050f40005e4000003020000015100000068000004
:10510400015f000003000000638000000000000055
:1051140000000000634100000200000000000000e5
:10512400634000000a00000000000000308000001e
:1051340000000000000000003081000000000000ba
:1051440000000000308200000000000000000000a9
:1051540030c0000000000000000000007b4600009a
:1051640008000000000000004040000001000000b2
:1051740000000000414000000100000000000000a9
:105184004440000001000000000000005340000003
:105194000100000000000000554000000100000074
:1051a4000000000055410000010000000000000064
:1051b4005240000001000000000000004f400000c9
:1051c4000100000000000000564000000100000043
:1051d40000000000565e0000000000000000000017
:1051e400425a000001000000000000004358000083
:1051f40000000000000000000d00000073800000ab
:1052040000f00000000000007340000001000000f6
:1052140000000000734e00000100000000000000c8
:105224007343000001000000000000006140000022
:1052340001000000000000007347000000000000af
:10524400000000007348000000000000000000009f
:1052540072400000000000000000000072410000e5
:105264000000000000000000728100000000000047
:105274000000000072820000000000000000000036
:1052840072430000000000000000000072440000af
:1052940000000000000000007180000001f4000024
:1052a400000000007181000000fa0000000000000e
:1052b40060c00000000000000000000060c10000a9
:1052c40000010000fea800007b4600003200000040
:1052d4000000000063400000010000000000000026
:1052e4006380000001000000000000006341000032
:1052f40001000000000000007380000001000000b5
:1053040000000000734000000100000000000000e5
:10531400734e000001000000000000007040000017
:1053240001000000000000007050000000000000b8
:1053340000000000704000000600000000000000b3
:1053440070500000010000000000000070400000e8
:105354000700000000000000705000000100000081
:10536400000000004541000033300000004200000e
:10537400463300005f000000e40c000078000000e9
:10538400320000008c0a00007800000032000000a7
:10539400dc050000f401000032000000e803000016
:1053a400f4010000320000000000000000000000d2
:1053b40000000000e8030000780000003200000054
:1053c400a00f00007800000032000000a00f0000d1
:1053d4007800000032000000e803000078000000bc
:1053e40032000000ac0d0000ff7f000064000000ec
:1053f400e80300002c0100004b000000d00700006f
:10540400960000004b000000e40c00004b0000007c
:105414004b000000a00f00009600000032000000c6
:10542400e40c000096000000320000008c0a00002a
:105434009600000032000000d00700009600000033
:1054440032000000dc05000096000000320000007d
:105454008c0a00009600000032000000d007000013
:105464009600000032000000dc05000096000000f9
:1054740032000000dc050000b80b00003200000020
:10548400d80e0000960000004b000000d80e00006b
:10549400960000004b000000d80e000096000000ab
:1054a4004b000000d80e0000960000004b000000e6
:1054b400d80e0000960000004b000000d80e00003b
:1054c400960000004b000000d80e0000960000007b
:1054d4004b000000d80e0000960000004b000000b6
:1054e400d80e00002c01000064000000d80e00005b
:1054f4002c01000064000000d80e00002c01000004
:1055040064000000d80e00002c01000064000000bc
:10551400d80e0000e803000064000000b80b00008f
:10552400ff7f00004b000000dc0500009600000037
:1055340032000000dc0500006400000032000000be
:10554400dc0500006400000032000000dc050000ff
:1055540064000000320000008713000032000000e5
:105564003200000087130000320000003200000007
:105574007213000028000000320000000100000047
:10558400bea9000001000000c4a900000100000041
:10559400caa9000001000000d0a900000300000017
:1055a4009caa000001000000d6a900000100000030
:1055b40042aa00000200000048aa00000200000005
:1055c400dca9000002000000e8a9000005000000ba
:1055d40054aa00000500000072aa000005000000a3
:1055e4000caa000002000000aeaa000001000000a6
:1055f400baaa000001000000f4a9000001000000a4
:1056040042aa0000010000003caa000003000000c0
:10561400faa900000100000096aa0000030000009f
:105624002aaa00000100000090aa0000736f000085
:10563400756e00006430000000000000c10000002e
:105644002b000000810000002d000000c2000000bb
:105654002c000000c30000002e00000082000000a7
:105664002f000000c500000028000000c600000054
:1056740029000000c800000030000000c90000003c
:1056840031000000ca00000032000000cb0000001e
:1056940033000000cc00000034000000890000004a
:1056a4000700000013c10000f25c00001381000039
:1056b400f25c000012c20000f25c000013c30000a0
:1056c400f25c000013820000f25c000013c40000ce
:1056d400885b000011c50000f25c0000128300002a
:1056e400646e000012840000646e000011850000e6
:1056f400646e000011c60000f25c000013c80000d4
:10570400f25c000011880000646e00001387000042
:10571400646e000013c90000f25c000013ca0000ac
:10572400f25c000013cb0000f25c000013cc00001c
:10573400f25c000012890000f25c0000119100008c
:10574400646e000013920000646e00001393000066
:10575400646e000013940000566b00001295000064
:10576400646e000012960000646e00001297000040
:10577400646e000012980000646e0000139900002b
:10578400646e000013d100004e62000013d20000ca
:105794005263000013d300001866000011d4000007
:1057a4004864000011d50000c0690000119a00008f
:1057b400646e000013d600001867000011d70000c3
:1057c400fe68000013d800004a6a000011d90000e6
:1057d4001a6c0000139b0000646e0000139c000010
:1057e400646e0000119d0000646e0000139e0000b2
:1057f400646e0000139f0000646e000013da000062
:105804003c6c000013a00000646e000013a10000b3
:10581400646e000011db00006e6d000013a2000036
:10582400646e000013a30000646e000013a4000063
:10583400646e000013a50000646e000012a6000050
:10584400646e000013a70000646e000001010000f4
:105854000303000005050000070700000000000026
:105864000202000004040000060600000405000013
:105874000607000004050000060700000001000000
:105884000203000000010000020300000203000004
:1058940002030000060700000607000000010000e4
:1058a400000100000405000004050000031f0000bf
:1058b40001040000010500000106000001070000ca
:1058c4000108000001090000010a0000002a00008c
:1058d400002b000001280000010e0000010f000051
:1058e4000028000001110000011200000113000053
:1058f400011400000115000001160000011700004a
:105904000118000001190000011a0000011b000029
:10591400011c0000011d00000029000001310000ed
:10592400013000000323000003240000002c0000c9
:10593400021e0000023400000220000002210000c8
:1059440002220000022400000034000002260000ad
:105954000227000002250000022e0000003600008d
:10596400002d000000370000003800000027000070
:10597400001e0000001f00000020000000210000a5
:105984000022000000230000002400000025000085
:10599400002600000233000000330000023600003d
:1059a400002e00000237000002380000021f000031
:1059b40002040000020500000206000002070000c5
:1059c4000208000002090000020a0000020b0000a5
:1059d400020c0000020d0000020e0000020f000085
:1059e4000210000002110000021200000213000065
:1059f4000214000002150000021600000217000045
:105a04000218000002190000021a0000021b000024
:105a1400021c0000021d0000002f000000310000e5
:105a24000030000002230000022d000000350000b9
:105a3400000400000005000000060000000700004c
:105a44000008000000090000000a0000000b00002c
:105a5400000c0000000d0000000e0000000f00000c
:105a640000100000001100000012000000130000ec
:105a740000140000001500000016000000170000cc
:105a84000018000000190000001a0000001b0000ac
:105a9400001c0000001d0000022f00000231000065
:105aa4000230000002350000012a00006b6500008e
